{
    "abi": [
        {
            "type": "constructor",
            "inputs": [],
            "stateMutability": "nonpayable"
        },
        {
            "type": "function",
            "name": "addTask",
            "inputs": [
                {
                    "name": "_title",
                    "type": "string",
                    "internalType": "string"
                },
                {
                    "name": "_description",
                    "type": "string",
                    "internalType": "string"
                }
            ],
            "outputs": [],
            "stateMutability": "nonpayable"
        },
        {
            "type": "function",
            "name": "deleteTask",
            "inputs": [
                {
                    "name": "_taskId",
                    "type": "uint256",
                    "internalType": "uint256"
                }
            ],
            "outputs": [],
            "stateMutability": "nonpayable"
        },
        {
            "type": "function",
            "name": "editTask",
            "inputs": [
                {
                    "name": "_taskId",
                    "type": "uint256",
                    "internalType": "uint256"
                },
                {
                    "name": "_title",
                    "type": "string",
                    "internalType": "string"
                },
                {
                    "name": "_description",
                    "type": "string",
                    "internalType": "string"
                }
            ],
            "outputs": [],
            "stateMutability": "nonpayable"
        },
        {
            "type": "function",
            "name": "getUserTaskIds",
            "inputs": [
                {
                    "name": "_user",
                    "type": "address",
                    "internalType": "address"
                }
            ],
            "outputs": [
                {
                    "name": "",
                    "type": "uint256[]",
                    "internalType": "uint256[]"
                }
            ],
            "stateMutability": "view"
        },
        {
            "type": "function",
            "name": "markCompleted",
            "inputs": [
                {
                    "name": "_taskId",
                    "type": "uint256",
                    "internalType": "uint256"
                }
            ],
            "outputs": [],
            "stateMutability": "nonpayable"
        },
        {
            "type": "function",
            "name": "owner",
            "inputs": [],
            "outputs": [
                {
                    "name": "",
                    "type": "address",
                    "internalType": "address"
                }
            ],
            "stateMutability": "view"
        },
        {
            "type": "function",
            "name": "renounceOwnership",
            "inputs": [],
            "outputs": [],
            "stateMutability": "nonpayable"
        },
        {
            "type": "function",
            "name": "tasks",
            "inputs": [
                {
                    "name": "",
                    "type": "uint256",
                    "internalType": "uint256"
                }
            ],
            "outputs": [
                {
                    "name": "id",
                    "type": "uint256",
                    "internalType": "uint256"
                },
                {
                    "name": "title",
                    "type": "string",
                    "internalType": "string"
                },
                {
                    "name": "description",
                    "type": "string",
                    "internalType": "string"
                },
                {
                    "name": "completed",
                    "type": "bool",
                    "internalType": "bool"
                },
                {
                    "name": "owner",
                    "type": "address",
                    "internalType": "address"
                }
            ],
            "stateMutability": "view"
        },
        {
            "type": "function",
            "name": "transferOwnership",
            "inputs": [
                {
                    "name": "newOwner",
                    "type": "address",
                    "internalType": "address"
                }
            ],
            "outputs": [],
            "stateMutability": "nonpayable"
        },
        {
            "type": "event",
            "name": "OwnershipTransferred",
            "inputs": [
                {
                    "name": "previousOwner",
                    "type": "address",
                    "indexed": true,
                    "internalType": "address"
                },
                {
                    "name": "newOwner",
                    "type": "address",
                    "indexed": true,
                    "internalType": "address"
                }
            ],
            "anonymous": false
        },
        {
            "type": "event",
            "name": "TaskAdded",
            "inputs": [
                {
                    "name": "taskId",
                    "type": "uint256",
                    "indexed": true,
                    "internalType": "uint256"
                },
                {
                    "name": "owner",
                    "type": "address",
                    "indexed": true,
                    "internalType": "address"
                }
            ],
            "anonymous": false
        },
        {
            "type": "event",
            "name": "TaskCompleted",
            "inputs": [
                {
                    "name": "taskId",
                    "type": "uint256",
                    "indexed": true,
                    "internalType": "uint256"
                }
            ],
            "anonymous": false
        },
        {
            "type": "event",
            "name": "TaskDeleted",
            "inputs": [
                {
                    "name": "taskId",
                    "type": "uint256",
                    "indexed": true,
                    "internalType": "uint256"
                }
            ],
            "anonymous": false
        },
        {
            "type": "event",
            "name": "TaskUpdated",
            "inputs": [
                {
                    "name": "taskId",
                    "type": "uint256",
                    "indexed": true,
                    "internalType": "uint256"
                }
            ],
            "anonymous": false
        },
        {
            "type": "error",
            "name": "OwnableInvalidOwner",
            "inputs": [
                {
                    "name": "owner",
                    "type": "address",
                    "internalType": "address"
                }
            ]
        },
        {
            "type": "error",
            "name": "OwnableUnauthorizedAccount",
            "inputs": [
                {
                    "name": "account",
                    "type": "address",
                    "internalType": "address"
                }
            ]
        }
    ],
    "bytecode": {
        "object": "0x608060405234801561000f575f5ffd5b50335f73ffffffffffffffffffffffffffffffffffffffff168173ffffffffffffffffffffffffffffffffffffffff1603610081575f6040517f1e4fbdf70000000000000000000000000000000000000000000000000000000081526004016100789190610196565b60405180910390fd5b6100908161009660201b60201c565b506101af565b5f5f5f9054906101000a900473ffffffffffffffffffffffffffffffffffffffff169050815f5f6101000a81548173ffffffffffffffffffffffffffffffffffffffff021916908373ffffffffffffffffffffffffffffffffffffffff1602179055508173ffffffffffffffffffffffffffffffffffffffff168173ffffffffffffffffffffffffffffffffffffffff167f8be0079c531659141344cd1fd0a4f28419497f9722a3daafe3b4186f6b6457e060405160405180910390a35050565b5f73ffffffffffffffffffffffffffffffffffffffff82169050919050565b5f61018082610157565b9050919050565b61019081610176565b82525050565b5f6020820190506101a95f830184610187565b92915050565b61184b806101bc5f395ff3fe608060405234801561000f575f5ffd5b5060043610610091575f3560e01c80638da5cb5b116100645780638da5cb5b1461010b578063b37b100014610129578063cac5c51214610145578063eb64787914610161578063f2fde38b1461019157610091565b80634103c62e14610095578063560f3192146100b1578063715018a6146100cd5780638d977672146100d7575b5f5ffd5b6100af60048036038101906100aa9190610f26565b6101ad565b005b6100cb60048036038101906100c69190610fb7565b6102b0565b005b6100d561065b565b005b6100f160048036038101906100ec9190610fb7565b61066e565b6040516101029594939291906110ba565b60405180910390f35b6101136107d8565b6040516101209190611119565b60405180910390f35b610143600480360381019061013e9190611132565b6107ff565b005b61015f600480360381019061015a9190610fb7565b610ad9565b005b61017b600480360381019061017691906111da565b610bcc565b60405161018891906112bc565b60405180910390f35b6101ab60048036038101906101a691906111da565b610c5f565b005b5f60025f8781526020019081526020015f2090503373ffffffffffffffffffffffffffffffffffffffff168160030160019054906101000a900473ffffffffffffffffffffffffffffffffffffffff1673ffffffffffffffffffffffffffffffffffffffff1614610253576040517f08c379a000000000000000000000000000000000000000000000000000000000815260040161024a90611326565b60405180910390fd5b8484826001019182610266929190611578565b50828282600201918261027a929190611578565b50857f6609cd564a515cc09deed9748ce5d9ca750c1b9e83f7ff246dbfac4de84a0aaa60405160405180910390a2505050505050565b5f60025f8381526020019081526020015f2090503373ffffffffffffffffffffffffffffffffffffffff168160030160019054906101000a900473ffffffffffffffffffffffffffffffffffffffff1673ffffffffffffffffffffffffffffffffffffffff1614610356576040517f08c379a000000000000000000000000000000000000000000000000000000000815260040161034d90611326565b60405180910390fd5b5f60045f3373ffffffffffffffffffffffffffffffffffffffff1673ffffffffffffffffffffffffffffffffffffffff1681526020019081526020015f205f8481526020019081526020015f205490505f600160035f3373ffffffffffffffffffffffffffffffffffffffff1673ffffffffffffffffffffffffffffffffffffffff1681526020019081526020015f20805490506103f49190611672565b9050808214610507575f60035f3373ffffffffffffffffffffffffffffffffffffffff1673ffffffffffffffffffffffffffffffffffffffff1681526020019081526020015f20828154811061044d5761044c6116a5565b5b905f5260205f20015490508060035f3373ffffffffffffffffffffffffffffffffffffffff1673ffffffffffffffffffffffffffffffffffffffff1681526020019081526020015f2084815481106104a8576104a76116a5565b5b905f5260205f2001819055508260045f3373ffffffffffffffffffffffffffffffffffffffff1673ffffffffffffffffffffffffffffffffffffffff1681526020019081526020015f205f8381526020019081526020015f2081905550505b60035f3373ffffffffffffffffffffffffffffffffffffffff1673ffffffffffffffffffffffffffffffffffffffff1681526020019081526020015f20805480610554576105536116d2565b5b600190038181905f5260205f20015f9055905560045f3373ffffffffffffffffffffffffffffffffffffffff1673ffffffffffffffffffffffffffffffffffffffff1681526020019081526020015f205f8581526020019081526020015f205f905560025f8581526020019081526020015f205f5f82015f9055600182015f6105dd9190610e32565b600282015f6105ec9190610e32565b600382015f6101000a81549060ff02191690556003820160016101000a81549073ffffffffffffffffffffffffffffffffffffffff02191690555050837fd078b251d950cc55c44340be1db732337ef4939a76e1367ee271ad2cb19c46af60405160405180910390a250505050565b610663610ce3565b61066c5f610d6a565b565b6002602052805f5260405f205f91509050805f015490806001018054610693906113a8565b80601f01602080910402602001604051908101604052809291908181526020018280546106bf906113a8565b801561070a5780601f106106e15761010080835404028352916020019161070a565b820191905f5260205f20905b8154815290600101906020018083116106ed57829003601f168201915b50505050509080600201805461071f906113a8565b80601f016020809104026020016040519081016040528092919081815260200182805461074b906113a8565b80156107965780601f1061076d57610100808354040283529160200191610796565b820191905f5260205f20905b81548152906001019060200180831161077957829003601f168201915b505050505090806003015f9054906101000a900460ff16908060030160019054906101000a900473ffffffffffffffffffffffffffffffffffffffff16905085565b5f5f5f9054906101000a900473ffffffffffffffffffffffffffffffffffffffff16905090565b5f60015f815480929190610812906116ff565b9190505590505f6040518060a0016040528083815260200187878080601f0160208091040260200160405190810160405280939291908181526020018383808284375f81840152601f19601f82011690508083019250505050505050815260200185858080601f0160208091040260200160405190810160405280939291908181526020018383808284375f81840152601f19601f8201169050808301925050505050505081526020015f151581526020013373ffffffffffffffffffffffffffffffffffffffff1681525090508060025f8481526020019081526020015f205f820151815f0155602082015181600101908161090f9190611746565b5060408201518160020190816109259190611746565b506060820151816003015f6101000a81548160ff02191690831515021790555060808201518160030160016101000a81548173ffffffffffffffffffffffffffffffffffffffff021916908373ffffffffffffffffffffffffffffffffffffffff16021790555090505060035f3373ffffffffffffffffffffffffffffffffffffffff1673ffffffffffffffffffffffffffffffffffffffff1681526020019081526020015f2082908060018154018082558091505060019003905f5260205f20015f9091909190915055600160035f3373ffffffffffffffffffffffffffffffffffffffff1673ffffffffffffffffffffffffffffffffffffffff1681526020019081526020015f2080549050610a3d9190611672565b60045f3373ffffffffffffffffffffffffffffffffffffffff1673ffffffffffffffffffffffffffffffffffffffff1681526020019081526020015f205f8481526020019081526020015f20819055503373ffffffffffffffffffffffffffffffffffffffff16827f54d6347622c0e9d781f71ed0051d6fdf61a13dc31d3d88157a01ff063a026da560405160405180910390a3505050505050565b5f60025f8381526020019081526020015f2090503373ffffffffffffffffffffffffffffffffffffffff168160030160019054906101000a900473ffffffffffffffffffffffffffffffffffffffff1673ffffffffffffffffffffffffffffffffffffffff1614610b7f576040517f08c379a0000000000000000000000000000000000000000000000000000000008152600401610b7690611326565b60405180910390fd5b6001816003015f6101000a81548160ff021916908315150217905550817fc1fa7142cfb933d0855114a3bffde296944c30b727f297c14d0db4d553d3a5c760405160405180910390a25050565b606060035f8373ffffffffffffffffffffffffffffffffffffffff1673ffffffffffffffffffffffffffffffffffffffff1681526020019081526020015f20805480602002602001604051908101604052809291908181526020018280548015610c5357602002820191905f5260205f20905b815481526020019060010190808311610c3f575b50505050509050919050565b610c67610ce3565b5f73ffffffffffffffffffffffffffffffffffffffff168173ffffffffffffffffffffffffffffffffffffffff1603610cd7575f6040517f1e4fbdf7000000000000000000000000000000000000000000000000000000008152600401610cce9190611119565b60405180910390fd5b610ce081610d6a565b50565b610ceb610e2b565b73ffffffffffffffffffffffffffffffffffffffff16610d096107d8565b73ffffffffffffffffffffffffffffffffffffffff1614610d6857610d2c610e2b565b6040517f118cdaa7000000000000000000000000000000000000000000000000000000008152600401610d5f9190611119565b60405180910390fd5b565b5f5f5f9054906101000a900473ffffffffffffffffffffffffffffffffffffffff169050815f5f6101000a81548173ffffffffffffffffffffffffffffffffffffffff021916908373ffffffffffffffffffffffffffffffffffffffff1602179055508173ffffffffffffffffffffffffffffffffffffffff168173ffffffffffffffffffffffffffffffffffffffff167f8be0079c531659141344cd1fd0a4f28419497f9722a3daafe3b4186f6b6457e060405160405180910390a35050565b5f33905090565b508054610e3e906113a8565b5f825580601f10610e4f5750610e6c565b601f0160209004905f5260205f2090810190610e6b9190610e6f565b5b50565b5b80821115610e86575f815f905550600101610e70565b5090565b5f5ffd5b5f5ffd5b5f819050919050565b610ea481610e92565b8114610eae575f5ffd5b50565b5f81359050610ebf81610e9b565b92915050565b5f5ffd5b5f5ffd5b5f5ffd5b5f5f83601f840112610ee657610ee5610ec5565b5b8235905067ffffffffffffffff811115610f0357610f02610ec9565b5b602083019150836001820283011115610f1f57610f1e610ecd565b5b9250929050565b5f5f5f5f5f60608688031215610f3f57610f3e610e8a565b5b5f610f4c88828901610eb1565b955050602086013567ffffffffffffffff811115610f6d57610f6c610e8e565b5b610f7988828901610ed1565b9450945050604086013567ffffffffffffffff811115610f9c57610f9b610e8e565b5b610fa888828901610ed1565b92509250509295509295909350565b5f60208284031215610fcc57610fcb610e8a565b5b5f610fd984828501610eb1565b91505092915050565b610feb81610e92565b82525050565b5f81519050919050565b5f82825260208201905092915050565b8281835e5f83830152505050565b5f601f19601f8301169050919050565b5f61103382610ff1565b61103d8185610ffb565b935061104d81856020860161100b565b61105681611019565b840191505092915050565b5f8115159050919050565b61107581611061565b82525050565b5f73ffffffffffffffffffffffffffffffffffffffff82169050919050565b5f6110a48261107b565b9050919050565b6110b48161109a565b82525050565b5f60a0820190506110cd5f830188610fe2565b81810360208301526110df8187611029565b905081810360408301526110f38186611029565b9050611102606083018561106c565b61110f60808301846110ab565b9695505050505050565b5f60208201905061112c5f8301846110ab565b92915050565b5f5f5f5f6040858703121561114a57611149610e8a565b5b5f85013567ffffffffffffffff81111561116757611166610e8e565b5b61117387828801610ed1565b9450945050602085013567ffffffffffffffff81111561119657611195610e8e565b5b6111a287828801610ed1565b925092505092959194509250565b6111b98161109a565b81146111c3575f5ffd5b50565b5f813590506111d4816111b0565b92915050565b5f602082840312156111ef576111ee610e8a565b5b5f6111fc848285016111c6565b91505092915050565b5f81519050919050565b5f82825260208201905092915050565b5f819050602082019050919050565b61123781610e92565b82525050565b5f611248838361122e565b60208301905092915050565b5f602082019050919050565b5f61126a82611205565b611274818561120f565b935061127f8361121f565b805f5b838110156112af578151611296888261123d565b97506112a183611254565b925050600181019050611282565b5085935050505092915050565b5f6020820190508181035f8301526112d48184611260565b905092915050565b7f4e6f74206f776e657200000000000000000000000000000000000000000000005f82015250565b5f611310600983610ffb565b915061131b826112dc565b602082019050919050565b5f6020820190508181035f83015261133d81611304565b9050919050565b5f82905092915050565b7f4e487b71000000000000000000000000000000000000000000000000000000005f52604160045260245ffd5b7f4e487b71000000000000000000000000000000000000000000000000000000005f52602260045260245ffd5b5f60028204905060018216806113bf57607f821691505b6020821081036113d2576113d161137b565b5b50919050565b5f819050815f5260205f209050919050565b5f6020601f8301049050919050565b5f82821b905092915050565b5f600883026114347fffffffffffffffffffffffffffffffffffffffffffffffffffffffffffffffff826113f9565b61143e86836113f9565b95508019841693508086168417925050509392505050565b5f819050919050565b5f61147961147461146f84610e92565b611456565b610e92565b9050919050565b5f819050919050565b6114928361145f565b6114a661149e82611480565b848454611405565b825550505050565b5f5f905090565b6114bd6114ae565b6114c8818484611489565b505050565b5b818110156114eb576114e05f826114b5565b6001810190506114ce565b5050565b601f82111561153057611501816113d8565b61150a846113ea565b81016020851015611519578190505b61152d611525856113ea565b8301826114cd565b50505b505050565b5f82821c905092915050565b5f6115505f1984600802611535565b1980831691505092915050565b5f6115688383611541565b9150826002028217905092915050565b6115828383611344565b67ffffffffffffffff81111561159b5761159a61134e565b5b6115a582546113a8565b6115b08282856114ef565b5f601f8311600181146115dd575f84156115cb578287013590505b6115d5858261155d565b86555061163c565b601f1984166115eb866113d8565b5f5b82811015611612578489013582556001820191506020850194506020810190506115ed565b8683101561162f578489013561162b601f891682611541565b8355505b6001600288020188555050505b50505050505050565b7f4e487b71000000000000000000000000000000000000000000000000000000005f52601160045260245ffd5b5f61167c82610e92565b915061168783610e92565b925082820390508181111561169f5761169e611645565b5b92915050565b7f4e487b71000000000000000000000000000000000000000000000000000000005f52603260045260245ffd5b7f4e487b71000000000000000000000000000000000000000000000000000000005f52603160045260245ffd5b5f61170982610e92565b91507fffffffffffffffffffffffffffffffffffffffffffffffffffffffffffffffff820361173b5761173a611645565b5b600182019050919050565b61174f82610ff1565b67ffffffffffffffff8111156117685761176761134e565b5b61177282546113a8565b61177d8282856114ef565b5f60209050601f8311600181146117ae575f841561179c578287015190505b6117a6858261155d565b86555061180d565b601f1984166117bc866113d8565b5f5b828110156117e3578489015182556001820191506020850194506020810190506117be565b8683101561180057848901516117fc601f891682611541565b8355505b6001600288020188555050505b50505050505056fea264697066735822122094617c3a4f9f34cee2f16640c2908f40cb81db80258aa35c51567baf3f826db164736f6c634300081c0033",
        "linkReferences": {}
    },
    "methodIdentifiers": {
        "addTask(string,string)": "b37b1000",
        "deleteTask(uint256)": "560f3192",
        "editTask(uint256,string,string)": "4103c62e",
        "getUserTaskIds(address)": "eb647879",
        "markCompleted(uint256)": "cac5c512",
        "owner()": "8da5cb5b",
        "renounceOwnership()": "715018a6",
        "tasks(uint256)": "8d977672",
        "transferOwnership(address)": "f2fde38b"
    },
    "id": 22
}